:100000000C942A000C943F000C943F000C943F0089
:100010000C943F000C943F000C943F000C943F0064
:100020000C943F000C943F000C943F000C943F0054
:100030000C943F000C943F000C943F000C943F0044
:100040000C943F000C943F000C943F000C943F0034
:100050000C943F0011241FBECFE5D4E0DEBFCDBF1E
:1000600010E0A0E6B0E0EAE5FEE002C005900D92E7
:10007000A636B107D9F70E94C4060C942B070C943E
:100080000000DF93CF93CDB7DEB728970FB6F89473
:10009000DEBF0FBECDBF8A836B834C8381E0898333
:1000A0008A81843008F0F3C08B81883008F0EFC07B
:1000B0008C81823008F0EBC08C81813009F06FC0F8
:1000C0008A81282F30E038872F838F81988581306F
:1000D000910549F12F813885223031052CF48F812B
:1000E0009885009761F0D2C02F8138852230310584
:1000F00071F18F81988583309105E9F1C7C0AAE33A
:10010000B0E0EAE3F0E08081482F8B81282F30E0D7
:1001100081E090E0022E02C0880F991F0A94E2F756
:10012000842B8C93B3C0A7E3B0E0E7E3F0E08081D9
:10013000482F8B81282F30E081E090E0022E02C012
:10014000880F991F0A94E2F7842B8C939FC0A4E335
:10015000B0E0E4E3F0E08081482F8B81282F30E08D
:1001600081E090E0022E02C0880F991F0A94E2F706
:10017000842B8C938BC0A1E3B0E0E1E3F0E08081BD
:10018000482F8B81282F30E081E090E0022E02C0C2
:10019000880F991F0A94E2F7842B8C9377C08C8187
:1001A000882309F073C08A81282F30E03E832D8395
:1001B0008D819E818130910559F12D813E812230C2
:1001C00031052CF48D819E81009769F05FC02D81EF
:1001D0003E812230310589F18D819E8183309105E8
:1001E00009F440C053C0AAE3B0E0EAE3F0E0808144
:1001F000482F8B81282F30E081E090E0022E02C052
:10020000880F991F0A94E2F7809584238C933EC04F
:10021000A7E3B0E0E7E3F0E08081482F8B81282F4F
:1002200030E081E090E0022E02C0880F991F0A940E
:10023000E2F7809584238C9329C0A4E3B0E0E4E343
:10024000F0E08081482F8B81282F30E081E090E022
:10025000022E02C0880F991F0A94E2F7809584232A
:100260008C9314C0A1E3B0E0E1E3F0E08081482F7B
:100270008B81282F30E081E090E0022E02C0880FB1
:10028000991F0A94E2F7809584238C9319828981BF
:1002900028960FB6F894DEBF0FBECDBFCF91DF9189
:1002A0000895DF93CF93CDB7DEB728970FB6F894B4
:1002B000DEBF0FBECDBF8A836B834C8381E0898311
:1002C0008A81843008F0F3C08B81883008F0EFC059
:1002D0008C81823008F0EBC08C81813009F06FC0D6
:1002E0008A81282F30E038872F838F81988581304D
:1002F000910549F12F813885223031052CF48F8109
:100300009885009761F0D2C02F8138852230310561
:1003100071F18F81988583309105E9F1C7C0ABE316
:10032000B0E0EBE3F0E08081482F8B81282F30E0B4
:1003300081E090E0022E02C0880F991F0A94E2F734
:10034000842B8C93B3C0A8E3B0E0E8E3F0E08081B5
:10035000482F8B81282F30E081E090E0022E02C0F0
:10036000880F991F0A94E2F7842B8C939FC0A5E312
:10037000B0E0E5E3F0E08081482F8B81282F30E06A
:1003800081E090E0022E02C0880F991F0A94E2F7E4
:10039000842B8C938BC0A2E3B0E0E2E3F0E0808199
:1003A000482F8B81282F30E081E090E0022E02C0A0
:1003B000880F991F0A94E2F7842B8C9377C08C8165
:1003C000882309F073C08A81282F30E03E832D8373
:1003D0008D819E818130910559F12D813E812230A0
:1003E00031052CF48D819E81009769F05FC02D81CD
:1003F0003E812230310589F18D819E8183309105C6
:1004000009F440C053C0ABE3B0E0EBE3F0E080811F
:10041000482F8B81282F30E081E090E0022E02C02F
:10042000880F991F0A94E2F7809584238C933EC02D
:10043000A8E3B0E0E8E3F0E08081482F8B81282F2B
:1004400030E081E090E0022E02C0880F991F0A94EC
:10045000E2F7809584238C9329C0A5E3B0E0E5E31F
:10046000F0E08081482F8B81282F30E081E090E000
:10047000022E02C0880F991F0A94E2F78095842308
:100480008C9314C0A2E3B0E0E2E3F0E08081482F57
:100490008B81282F30E081E090E0022E02C0880F8F
:1004A000991F0A94E2F7809584238C93198289819D
:1004B00028960FB6F894DEBF0FBECDBFCF91DF9167
:1004C0000895DF93CF93CDB7DEB727970FB6F89493
:1004D000DEBF0FBECDBF8A836B835D834C8381E01B
:1004E00089838A81843008F0ABC08B81883008F022
:1004F000A7C08C819D81009709F4A2C08A81282F12
:1005000030E03F832E834E815F8141305105C1F140
:100510008E819F818230910534F42E813F81211597
:10052000310571F08CC04E815F814230510509F474
:1005300047C08E819F818330910509F461C07FC0DF
:10054000EBE3F0E08081482F50E08B81282F30E0F2
:1005500081E090E002C0880F991F2A95E2F79A0186
:10056000282339238B81882F90E0A90102C055955B
:1005700047958A95E2F7CA01EC81FD8180835FC0CF
:10058000E8E3F0E08081482F50E08B81282F30E0B5
:1005900081E090E002C0880F991F2A95E2F79A0146
:1005A000282339238B81882F90E0A90102C055951B
:1005B00047958A95E2F7CA01EC81FD8180833FC0AF
:1005C000E5E3F0E08081482F50E08B81282F30E078
:1005D00081E090E002C0880F991F2A95E2F79A0106
:1005E000282339238B81882F90E0A90102C05595DB
:1005F00047958A95E2F7CA01EC81FD8180831FC08F
:10060000E2E3F0E08081482F50E08B81282F30E03A
:1006100081E090E002C0880F991F2A95E2F79A01C5
:10062000282339238B81882F90E0A90102C055959A
:1006300047958A95E2F7CA01EC81FD818083198292
:10064000898127960FB6F894DEBF0FBECDBFCF913C
:10065000DF910895DF93CF9300D000D00F92CDB7F4
:10066000DEB78A836B8381E089838A81843008F0D6
:1006700073C08B81883008F06FC08A81282F30E0EA
:100680003D832C838C819D818130910549F12C81A2
:100690003D81223031052CF48C819D81009761F0E1
:1006A0005AC02C813D812230310571F18C819D81B0
:1006B00083309105E9F14FC0ABE3B0E0EBE3F0E04C
:1006C0008081482F8B81282F30E081E090E0022E3E
:1006D00002C0880F991F0A94E2F784278C933BC0CD
:1006E000A8E3B0E0E8E3F0E08081482F8B81282F79
:1006F00030E081E090E0022E02C0880F991F0A943A
:10070000E2F784278C9327C0A5E3B0E0E5E3F0E0AF
:100710008081482F8B81282F30E081E090E0022EED
:1007200002C0880F991F0A94E2F784278C9313C0A4
:10073000A2E3B0E0E2E3F0E08081482F8B81282F34
:1007400030E081E090E0022E02C0880F991F0A94E9
:10075000E2F784278C93198289810F900F900F9074
:100760000F900F90CF91DF910895DF93CF9300D03A
:1007700000D00F92CDB7DEB78A836B8381E0898387
:100780008A81843098F58A81282F30E03D832C833C
:100790008C819D8181309105D1F02C813D81223069
:1007A00031052CF48C819D81009761F01EC02C8155
:1007B0003D812230310581F08C819D81833091050E
:1007C00081F013C0EAE3F0E08FEF80830EC0E7E32F
:1007D000F0E08FEF808309C0E4E3F0E08FEF8083E7
:1007E00004C0E1E3F0E08FEF8083198289810F90EC
:1007F0000F900F900F900F90CF91DF910895DF939E
:10080000CF9300D000D00F92CDB7DEB78A836B8331
:1008100081E089838A81843098F58A81282F30E0AD
:100820003D832C838C819D8181309105D1F02C8179
:100830003D81223031052CF48C819D81009761F03F
:100840001EC02C813D812230310581F08C819D813B
:100850008330910581F013C0EBE3F0E08B8180835E
:100860000EC0E8E3F0E08B81808309C0E5E3F0E0AF
:100870008B81808304C0E2E3F0E08B818083198266
:1008800089810F900F900F900F900F90CF91DF9173
:100890000895DF93CF9300D000D000D0CDB7DEB75E
:1008A0008A837C836B8381E089838A81843008F02A
:1008B0003FC08B819C810097D9F18A81282F30E03D
:1008C0003E832D838D819E8181309105E1F02D81C4
:1008D0003E81223031052CF48D819E81009761F09C
:1008E00026C02D813E8122303105A1F08D819E816F
:1008F00083309105B1F01BC0E9E3F0E08081EB812A
:10090000FC81808314C0E6E3F0E08081EB81FC8110
:1009100080830DC0E3E3F0E08081EB81FC81808384
:1009200006C0E0E3F0E08081EB81FC8180831982E6
:10093000898126960FB6F894DEBF0FBECDBFCF914A
:10094000DF910895DF93CF9300D000D0CDB7DEB70D
:100950008A8381E089838A81843008F03FC08A815C
:10096000282F30E03C832B838B819C818130910543
:10097000E9F02B813C81223031052CF48B819C8164
:10098000009761F02AC02B813C8122303105B1F003
:100990008B819C8183309105C9F01FC0ABE3B0E02F
:1009A000EBE3F0E0808180958C9317C0A8E3B0E082
:1009B000E8E3F0E0808180958C930FC0A5E3B0E080
:1009C000E5E3F0E0808180958C9307C0A2E3B0E07E
:1009D000E2E3F0E0808180958C93198289810F9009
:1009E0000F900F900F90CF91DF910895DF93CF93E9
:1009F00000D000D00F92CDB7DEB78A836B8381E041
:100A000089838A81843008F06BC08A81282F30E086
:100A10003D832C838C819D818130910541F12C8116
:100A20003D81223031052CF48C819D81009761F04D
:100A300056C02C813D812230310561F18C819D8130
:100A400083309105D1F14BC0ABE3B0E0EBE3F0E0D4
:100A50008081807F8C938B818F708B83ABE3B0E040
:100A6000EBE3F0E090818B81892B8C9338C0A8E375
:100A7000B0E0E8E3F0E08081807F8C938B818F7021
:100A80008B83A8E3B0E0E8E3F0E090818B81892BD1
:100A90008C9325C0A5E3B0E0E5E3F0E08081807FA2
:100AA0008C938B818F708B83A5E3B0E0E5E3F0E05E
:100AB00090818B81892B8C9312C0A2E3B0E0E2E39A
:100AC000F0E08081807F8C938B818F708B83A2E399
:100AD000B0E0E2E3F0E090818B81892B8C93198266
:100AE00089810F900F900F900F900F90CF91DF9111
:100AF0000895DF93CF9300D000D00F92CDB7DEB72B
:100B00008A836B838B818295807F8B8381E089834D
:100B10008A81843008F05FC08A81282F30E03D83CD
:100B20002C838C819D818130910529F12C813D811F
:100B3000223031052CF48C819D81009761F04AC0F0
:100B40002C813D812230310531F18C819D818330B2
:100B5000910589F13FC0ABE3B0E0EBE3F0E08081C9
:100B60008F708C93ABE3B0E0EBE3F0E090818B818E
:100B7000892B8C932FC0A8E3B0E0E8E3F0E08081FC
:100B80008F708C93A8E3B0E0E8E3F0E090818B8174
:100B9000892B8C931FC0A5E3B0E0E5E3F0E08081F2
:100BA0008F708C93A5E3B0E0E5E3F0E090818B815A
:100BB000892B8C930FC0A2E3B0E0E2E3F0E08081E8
:100BC0008F708C93A2E3B0E0E2E3F0E090818B8140
:100BD000892B8C93198289810F900F900F900F9021
:100BE0000F90CF91DF910895DF93CF9300D00F92B4
:100BF000CDB7DEB769837A838B8389819A81692F28
:100C000041E00E9441000F900F900F90CF91DF9133
:100C10000895DF93CF9300D00F92CDB7DEB76983ED
:100C20007A838B838B81882339F489819A81692F18
:100C300040E00E94510109C08B81813031F48981EB
:100C40009A81692F41E00E9451010F900F900F90FF
:100C5000CF91DF910895DF93CF9300D00F92CDB75E
:100C6000DEB769837A838B838B81882339F489810A
:100C70009A81692F41E00E94510109C08B81813026
:100C800031F489819A81692F40E00E9451010F90CF
:100C90000F900F90CF91DF910895DF93CF9300D005
:100CA0000F92CDB7DEB769837A838B8389819A816E
:100CB000692F0E942A030F900F900F90CF91DF9120
:100CC0000895DF93CF9300D00F92CDB7DEB769833D
:100CD0007A838B8389819A81692F40E00E94410049
:100CE0008B81823031F489819A81692F41E00E94A1
:100CF00051010F900F900F90CF91DF910895DF93E6
:100D0000CF9300D000D00F92CDB7DEB76B837C833A
:100D10008D831A8219828D818823A1F48B819C8115
:100D20009E012E5F3F4F692FA9010E9461028A81B7
:100D3000813019F481E089831EC08A818823D9F427
:100D4000198219C08D81823019F08D81813099F41A
:100D50008B819C819E012E5F3F4F692FA9010E94CC
:100D600061028A81882319F481E0898304C08A8121
:100D7000813009F4198289810F900F900F900F90A4
:100D80000F90CF91DF910895DF93CF93CDB7DEB76A
:100D900060970FB6F894DEBF0FBECDBFCE010196AF
:100DA00098878F83E3E6F0E0FA87E987F3E0FB8733
:100DB000E985FA85008089859A8501969A878987D1
:100DC000EF81F88500828F819885019698878F83BF
:100DD0009B8591509B87EB85EE2351F7CE010496BE
:100DE0009D878C87E0E6F0E0FF87EE87F3E0F88BE5
:100DF000EE85FF8500808E859F8501969F878E8773
:100E0000EC85FD8500828C859D8501969D878C876C
:100E100098899150988BE889EE2351F769817A81FE
:100E20008B810E94F4056C817D818E810E94610618
:100E30006C817D818E810E947F06813031F46981D1
:100E40007A818B810E940906F3CF69817A818B8137
:0A0E50000E942B06EDCFF894FFCFAF
:060E5A000200020000018D
:00000001FF
